{
  "contractName": "Blog",
  "abi": [
    {
      "inputs": [],
      "payable": false,
      "stateMutability": "nonpayable",
      "type": "constructor"
    },
    {
      "anonymous": false,
      "inputs": [
        {
          "indexed": false,
          "internalType": "uint256",
          "name": "id",
          "type": "uint256"
        },
        {
          "indexed": false,
          "internalType": "string",
          "name": "content",
          "type": "string"
        },
        {
          "indexed": false,
          "internalType": "address payable",
          "name": "blog_creater",
          "type": "address"
        },
        {
          "indexed": false,
          "internalType": "uint256",
          "name": "amount",
          "type": "uint256"
        }
      ],
      "name": "POST_CREATED",
      "type": "event"
    },
    {
      "anonymous": false,
      "inputs": [
        {
          "indexed": false,
          "internalType": "uint256",
          "name": "id",
          "type": "uint256"
        },
        {
          "indexed": false,
          "internalType": "string",
          "name": "content",
          "type": "string"
        },
        {
          "indexed": false,
          "internalType": "address payable",
          "name": "blog_creater",
          "type": "address"
        },
        {
          "indexed": false,
          "internalType": "uint256",
          "name": "amount",
          "type": "uint256"
        }
      ],
      "name": "POST_TIPPED",
      "type": "event"
    },
    {
      "constant": true,
      "inputs": [],
      "name": "postCount",
      "outputs": [
        {
          "internalType": "uint256",
          "name": "",
          "type": "uint256"
        }
      ],
      "payable": false,
      "stateMutability": "view",
      "type": "function"
    },
    {
      "constant": true,
      "inputs": [
        {
          "internalType": "uint256",
          "name": "",
          "type": "uint256"
        }
      ],
      "name": "posts",
      "outputs": [
        {
          "internalType": "uint256",
          "name": "id",
          "type": "uint256"
        },
        {
          "internalType": "string",
          "name": "content",
          "type": "string"
        },
        {
          "internalType": "address payable",
          "name": "blog_creater",
          "type": "address"
        },
        {
          "internalType": "uint256",
          "name": "amount",
          "type": "uint256"
        }
      ],
      "payable": false,
      "stateMutability": "view",
      "type": "function"
    },
    {
      "constant": false,
      "inputs": [
        {
          "internalType": "string",
          "name": "_content",
          "type": "string"
        }
      ],
      "name": "create_post",
      "outputs": [],
      "payable": false,
      "stateMutability": "nonpayable",
      "type": "function"
    },
    {
      "constant": false,
      "inputs": [
        {
          "internalType": "uint256",
          "name": "_id",
          "type": "uint256"
        }
      ],
      "name": "tip_post",
      "outputs": [],
      "payable": true,
      "stateMutability": "payable",
      "type": "function"
    }
  ],
  "bytecode": "0x60806040526000805534801561001457600080fd5b50600160008082825401925050819055506040518060800160405280600181526020016040518060400160405280601481526020017f46697273742054656d706f7261727920506f737400000000000000000000000081525081526020013373ffffffffffffffffffffffffffffffffffffffff168152602001600081525060016000805481526020019081526020016000206000820151816000015560208201518160010190805190602001906100cd929190610127565b5060408201518160020160006101000a81548173ffffffffffffffffffffffffffffffffffffffff021916908373ffffffffffffffffffffffffffffffffffffffff160217905550606082015181600301559050506101cc565b828054600181600116156101000203166002900490600052602060002090601f016020900481019282601f1061016857805160ff1916838001178555610196565b82800160010185558215610196579182015b8281111561019557825182559160200191906001019061017a565b5b5090506101a391906101a7565b5090565b6101c991905b808211156101c55760008160009055506001016101ad565b5090565b90565b6108e1806101db6000396000f3fe60806040526004361061003f5760003560e01c80630b1e7f831461004457806317906c2e14610139578063720992ec146101645780637c6a822314610192575b600080fd5b34801561005057600080fd5b5061007d6004803603602081101561006757600080fd5b810190808035906020019092919050505061025a565b60405180858152602001806020018473ffffffffffffffffffffffffffffffffffffffff1673ffffffffffffffffffffffffffffffffffffffff168152602001838152602001828103825285818151815260200191508051906020019080838360005b838110156100fb5780820151818401526020810190506100e0565b50505050905090810190601f1680156101285780820380516001836020036101000a031916815260200191505b509550505050505060405180910390f35b34801561014557600080fd5b5061014e610342565b6040518082815260200191505060405180910390f35b6101906004803603602081101561017a57600080fd5b8101908080359060200190929190505050610348565b005b34801561019e57600080fd5b50610258600480360360208110156101b557600080fd5b81019080803590602001906401000000008111156101d257600080fd5b8201836020820111156101e457600080fd5b8035906020019184600183028401116401000000008311171561020657600080fd5b91908080601f016020809104026020016040519081016040528093929190818152602001838380828437600081840152601f19601f8201169050808301925050505050505091929192905050506105d0565b005b6001602052806000526040600020600091509050806000015490806001018054600181600116156101000203166002900480601f01602080910402602001604051908101604052809291908181526020018280546001816001161561010002031660029004801561030c5780601f106102e15761010080835404028352916020019161030c565b820191906000526020600020905b8154815290600101906020018083116102ef57829003601f168201915b5050505050908060020160009054906101000a900473ffffffffffffffffffffffffffffffffffffffff16908060030154905084565b60005481565b60008111801561035a57506000548111155b6103cc576040517f08c379a00000000000000000000000000000000000000000000000000000000081526004018080602001828103825260048152602001807f486168610000000000000000000000000000000000000000000000000000000081525060200191505060405180910390fd5b6001600082815260200190815260200160002060020160009054906101000a900473ffffffffffffffffffffffffffffffffffffffff1673ffffffffffffffffffffffffffffffffffffffff166108fc349081150290604051600060405180830381858888f19350505050158015610448573d6000803e3d6000fd5b503460016000838152602001908152602001600020600301600082825401925050819055507fd7bc791bd5b2e4c4cf738a7d99665a666472a033fb356f3dee059ab2c7559c79600054600160008481526020019081526020016000206001016001600085815260200190815260200160002060020160009054906101000a900473ffffffffffffffffffffffffffffffffffffffff16600160008681526020019081526020016000206003015460405180858152602001806020018473ffffffffffffffffffffffffffffffffffffffff1673ffffffffffffffffffffffffffffffffffffffff1681526020018381526020018281038252858181546001816001161561010002031660029004815260200191508054600181600116156101000203166002900480156105bc5780601f10610591576101008083540402835291602001916105bc565b820191906000526020600020905b81548152906001019060200180831161059f57829003601f168201915b50509550505050505060405180910390a150565b6000815111610647576040517f08c379a000000000000000000000000000000000000000000000000000000000815260040180806020018281038252601e8152602001807f506c6561736520656e74657220612076616c696420426c6f6720506f7374000081525060200191505060405180910390fd5b6000808154809291906001019190505550604051806080016040528060005481526020018281526020013373ffffffffffffffffffffffffffffffffffffffff168152602001600081525060016000805481526020019081526020016000206000820151816000015560208201518160010190805190602001906106cc929190610807565b5060408201518160020160006101000a81548173ffffffffffffffffffffffffffffffffffffffff021916908373ffffffffffffffffffffffffffffffffffffffff160217905550606082015181600301559050507f360dc5787348358f8e6699952f559af5327f02565bd2a058694f547336645a9a6000548233600060405180858152602001806020018473ffffffffffffffffffffffffffffffffffffffff1673ffffffffffffffffffffffffffffffffffffffff168152602001838152602001828103825285818151815260200191508051906020019080838360005b838110156107c75780820151818401526020810190506107ac565b50505050905090810190601f1680156107f45780820380516001836020036101000a031916815260200191505b509550505050505060405180910390a150565b828054600181600116156101000203166002900490600052602060002090601f016020900481019282601f1061084857805160ff1916838001178555610876565b82800160010185558215610876579182015b8281111561087557825182559160200191906001019061085a565b5b5090506108839190610887565b5090565b6108a991905b808211156108a557600081600090555060010161088d565b5090565b9056fea265627a7a723158208619ace9e762c1256915560cbd369fe49fe028152f384b01b9c7ec396fe0d65664736f6c63430005100032",
  "source": "pragma solidity ^0.5.0;\r\n\r\ncontract Blog{\r\n    // map - posts\r\n    // struck posts ka - id ,content, address, amount\r\n    // events - Post Created- use msg.sender\r\n    //event Post tipped- someone can tip a post\r\n    uint public postCount = 0;\r\n\r\n    struct POST{\r\n        uint id;\r\n        string content;\r\n        address payable blog_creater;\r\n        uint amount;\r\n    }\r\n\r\n    mapping(uint => POST) public posts;\r\n\r\n\r\n    constructor () public{\r\n        postCount += 1;\r\n        posts[postCount] = POST(1,\"First Temporary Post\",msg.sender,0);\r\n    }\r\n    \r\n    event POST_CREATED(\r\n        uint id,\r\n        string content,\r\n        address payable blog_creater,\r\n        uint amount\r\n    );\r\n\r\n    event POST_TIPPED(\r\n        uint id,\r\n        string content,\r\n        address payable blog_creater,\r\n        uint amount\r\n    );\r\n\r\n    function create_post(string memory _content) public {\r\n        require(bytes(_content).length > 0,\"Please enter a valid Blog Post\");\r\n        postCount++;\r\n        posts[postCount] = POST(postCount,_content,msg.sender,0);\r\n        emit POST_CREATED(postCount,_content,msg.sender,0);\r\n    }\r\n\r\n    function tip_post(uint _id) public payable{\r\n        require(_id>0 && _id <= postCount,\"Haha\");\r\n        address(posts[_id].blog_creater).transfer(msg.value);\r\n        posts[_id].amount += msg.value;\r\n        emit POST_TIPPED(postCount,posts[_id].content,posts[_id].blog_creater,posts[_id].amount);\r\n    }\r\n    //rto vehicle \r\n}",
  "sourcePath": "C:\\Users\\harsh\\Desktop\\Blockchain\\starter_kit\\src\\contracts\\Blog.sol",
  "compiler": {
    "name": "solc",
    "version": "0.5.16+commit.9c3226ce.Emscripten.clang"
  },
  "schemaVersion": "3.2.0",
  "updatedAt": "2020-06-10T06:57:23.120Z",
  "networkType": "ethereum",
  "devdoc": {
    "methods": {}
  },
  "userdoc": {
    "methods": {}
  }
}